:0400000096EF00F087
:100008005B82FACF01F0FBCF02F0D9CF03F0DACF51
:1000180004F0F2AC12EF00F014EF00F08CEF00F0F7
:10002800A3A819EF00F01BEF00F032EF00F0A4A82E
:1000380020EF00F022EF00F032EF00F002D830EFAE
:1000480000F00500FA6E0001EB51FD6EEC51FE6EFA
:10005800ED51FF6EFA5012008CEF00F0A3AA37EFB3
:1000680000F039EF00F050EF00F0A4AA3EEF00F0E6
:1000780040EF00F050EF00F002D84EEF00F005001E
:10008800FA6E0001E851FD6EE951FE6EEA51FF6E0D
:10009800FA5012008CEF00F09DA855EF00F057EFD2
:1000A80000F06EEF00F09EA85CEF00F05EEF00F04D
:1000B8006EEF00F002D86CEF00F00500FA6E000158
:1000C800DC51FD6EDD51FE6EDE51FF6EFA501200FE
:1000D8008CEF00F09DAA73EF00F075EF00F08CEF45
:1000E80000F09EAA7AEF00F07CEF00F08CEF00F0B1
:1000F80002D88AEF00F00500FA6E0001D951FD6EB2
:10010800DA51FE6EDB51FF6EFA5012008CEF00F0F0
:1001180004C0DAFF03C0D9FF02C0FBFF01C0FAFF29
:080128005B921100E4EF85F089
:10FE1A0000546F6F206D616E7920617474656D7026
:10FE2A0074732C2046696E6765727072696E74739A
:10FE3A0020646964206E6F74206D61746368203376
:10FE4A002074696D65732100322E20436865636BE7
:10FE5A00204E756D626572206F6620526567697300
:10FE6A0074657265642046696E6765727072696E40
:10FE7A007473200A00312E205265676973746572A3
:10FE8A00206E65772046696E6765727072696E7456
:10FE9A00200A0046696E6765727072696E74732013
:10FEAA00646964206E6F74206D61746368210A004E
:10FEBA00332E2046696E6765727072696E7473209C
:10FECA004F7074696F6E73200A003C433E436F6D36
:10FEDA007061726546696E6765727072696E743CAC
:10FEEA002F433E00312E20436F6D706172652046AC
:10FEFA00696E6765727072696E74730A00332E20B8
:10FF0A0044656C6574652066696E676572707269AE
:10FF1A006E74200A005075742066696E67657220D7
:10FF2A006F6E2073656E736F720A005475726E205D
:10FF3A00416C61726D204F46462E2E2E200A0032E9
:10FF4A002E205475726E20416C61726D204F4646A8
:10FF5A00200A00312E205475726E20416C61726D38
:10FF6A00204F4E200A005475726E20416C61726DEA
:10FF7A00204F4E2E2E2E0A00496E76616C6964203F
:10FF8A00696E70757421200A004261636B20746F78
:10FF9A00206D61696E2E2E2E0A00456E74657220E0
:10FFAA006E756D6265723A200A00477265736B61FD
:10FFBA00207072696A656D610A00496E70757420F5
:10FFCA00792F6E3A200A0054727920616761696E4E
:10FFDA00210A003C523E4641494C3C2F523E0057B2
:10FFEA00656C636F6D6521200A004572726F72211C
:06FFFA000025730A00005F
:020000040001F9
:10000000000E0001CA6F36EF81F01F0E386EFF0E32
:10001000396EA0EC87F0AC0E056E000E066ED40EA5
:10002000076EFE0E086EB7EC86F0000E0001CB6F77
:1000300025EF80F0AC0ECB25D96EDA6A000EDA22FD
:10004000DF503CEC86F00001CB2BAC0E056E000EB1
:10005000066E5BEC87F00001CB51446E456A05509B
:10006000445C06504558D8A038EF80F03AEF80F055
:100070001AEF80F0BEEC87F00009D8B442EF80F0B0
:1000800044EF80F03AEF80F08FEC86F0210AD8A49C
:100090004CEF80F04EEF80F044EF80F0D00E446ED5
:1000A000CA0EE82EFED7442EFCD78FEC86F00A0A43
:1000B000D8A45DEF80F05FEF80F055EF80F0BEECEC
:1000C00087F00009D8B467EF80F069EF80F05FEF48
:1000D00080F0D00E446ECA0EE82EFED7442EFCD718
:1000E000000E0001CB6F82EF80F08FEC86F0446E43
:1000F000AC0E0001CB25D96EDA6A000EDA2244C0BC
:10010000DFFFCB2B5450D8B488EF80F08AEF80F01B
:1001100093EF80F01E0ECB19D8A491EF80F093EFEF
:1001200080F075EF80F01E0ECB19D8A49AEF80F006
:100130009CEF80F0AEEF80F0B40E386EFF0E396E9B
:10014000A0EC87F0A6EF80F08FEC86F05450D8A496
:10015000ACEF80F0AEEF80F0A4EF80F0AC0E0001C9
:10016000CB25D96EDA6A000EDA22000EDF6EFB0EA6
:10017000386EFF0E396EAC0E3A6E000E3B6EA0EC80
:1001800087F0AC0E056E000E066EDD0E076EFF0EDC
:10019000086E75EC85F005500610D8A4D2EF80F0FB
:1001A000D4EF80F0E4EF80F09D0E386EFE0E396ED5
:1001B000A0EC87F00001CA2BD10E386EFF0E396E0D
:1001C000A0EC87F036EF81F03C0E0001AC19D8A40A
:1001D000ECEF80F0EEEF80F02EEF81F0520EAD19D3
:1001E000D8A4F5EF80F0F7EF80F02EEF81F03E0E0F
:1001F000AE19D8A4FEEF80F000EF81F02EEF81F071
:10020000500EAF19D8A407EF81F009EF81F02EEF5F
:1002100081F0410EB019D8A410EF81F012EF81F0F7
:100220002EEF81F0530EB119D8A419EF81F01BEF16
:1002300081F02EEF81F0530EB119D8A422EF81F096
:1002400024EF81F02EEF81F0E90E386EFF0E396E4B
:10025000A0EC87F0F7EC83F036EF81F0F40E386E07
:10026000FF0E396EA0EC87F00001CA2B020E0001D0
:10027000CA653DEF81F03FEF81F005EF80F0030E9E
:10028000CA19D8A446EF81F048EF81F04EEF81F013
:100290001B0E386EFE0E396EA0EC87F0120020EEB9
:1002A000EEF010EE15F0060EDBCFE3FFE806FCE201
:1002B00012C020F013C021F020502110D8A463EF09
:1002C00081F065EF81F069EF81F0150E206E000E70
:1002D000216E20C005F021C006F05BEC87F005C060
:1002E00024F006C025F048C022F049C023F023BE08
:1002F0007CEF81F07EEF81F093EF81F02450225C5F
:100300002350800A146E2550800A1458D8A08BEF11
:1003100081F08DEF81F08FEF81F093EF81F022C0BB
:1003200024F023C025F024C022F025C023F0AAC069
:100330001EF0ABC01FF04AB0A0EF81F0A2EF81F039
:10034000BFEF81F0B0EF81F0000E086E200E076E57
:1003500010C009F011C00AF058EC84F0244A252A94
:100360001E50245C2550800A146E1F50800A1458B9
:10037000D8A0BDEF81F0BFEF81F0A4EF81F0000EB7
:100380001D6E000E1C6ED8EF81F020C0D9FF21C079
:10039000DAFFDF50146E1450076E086A10C009F0BF
:1003A00011C00AF058EC84F0204A212A1C4A1D2A68
:1003B00022501C5C1D50800A146E2350800A145871
:1003C000D8A0E5EF81F0E7EF81F0C5EF81F04AA01A
:1003D000ECEF81F0EEEF81F00BEF82F0FCEF81F0BB
:1003E000000E086E200E076E10C009F011C00AF052
:1003F00058EC84F0244A252A1E50245C2550800A9B
:10040000146E1F50800A1458D8A009EF82F00BEF29
:1004100082F0F0EF81F024C010F025C011F012003E
:1004200028C0D9FF29C0DAFFDECFF6FFDDCFF7FF06
:10043000000EF86E0800F550250AD8A422EF82F0CD
:1004400024EF82F0ADEF82F028C0D9FF29C0DAFF97
:10045000DE2A000EDD22000E0001AB6F000EAA6F37
:10046000AAC04AF0ABC04BF04868496828C0D9FF21
:1004700029C0DAFFDECFF6FFDDCFF7FF000EF86E02
:100480000800F550730AD8A448EF82F04AEF82F0D2
:1004900075EF82F028C0D9FF29C0DAFFDE2A000EEE
:1004A000DD222AC0D9FF2BC0DAFFDFCF2CF0020EED
:1004B000DE26DFCF2DF0000EDD222CC0D9FF2DC0AF
:1004C000DAFFDECF2EF0DDCF2FF026C010F027C0F0
:1004D00011F02EC012F02FC013F04FEC81F010C0BD
:1004E00026F011C027F0CAEF82F028C0D9FF29C03A
:1004F000DAFFDECFF6FFDDCFF7FF000EF86E080063
:10050000F550250AD8A487EF82F089EF82F0A0EF9A
:1005100082F028C0D9FF29C0DAFFDE2A000EDD22D2
:10052000000E086E250E076E26C009F027C00AF0DF
:1005300058EC84F0000E276E010E266ECAEF82F092
:1005400028C0D9FF29C0DAFFDE2A000EDD22000E06
:10055000276E000E266ECAEF82F028C0D9FF29C090
:10056000DAFFDECFF6FFDDCFF7FF000EF86E0800F2
:10057000F550076E086A26C009F027C00AF058EC4B
:1005800084F028C0D9FF29C0DAFFDE2A000EDD2260
:100590009AEF82F01200000E0001CE6F000ECF6FB6
:1005A000DFEF82F067EC86F00001CE6FCC0ECF2536
:1005B000D96EDA6A000EDA22CEC0DFFFCF2B0A0E28
:1005C000CE19D8A4E6EF82F0E8EF82F0D2EF82F005
:1005D000010ECF65EEEF82F0F0EF82F0D2EF82F005
:1005E000020ECF19D8B4F7EF82F0F9EF82F01BEFCB
:1005F00083F0FDEF82F067EC86F04E50D8A403EF55
:1006000083F005EF83F0FBEF82F030EF83F000EC36
:1006100080F030EF83F0930E386EFF0E396EA0EC51
:1006200087F030EF83F0820E386EFF0E396EA0EC4B
:1006300087F030EF83F0CC51466E476A4750000A8E
:10064000D8B425EF83F013EF83F046506E0AD8B488
:100650000BEF83F0170AD8B407EF83F013EF83F0A2
:100660001200600E5624D96EDA6A000EDA22000EED
:10067000DF6E0F0122A53FEF83F041EF83F056EFCD
:1006800083F0600E5624D96EDA6A000EDA22000179
:10069000DF8202D856EF83F00500FA6EE551FD6E59
:1006A000E651FE6EE751FF6EFA5012000F0122A3D1
:1006B0005CEF83F05EEF83F073EF83F0600E5624FF
:1006C000D96EDA6A000EDA220001DF8402D873EFF5
:1006D00083F00500FA6EE251FD6EE351FE6EE451C7
:1006E000FF6EFA501200600E5624D96EDA6A000EC0
:1006F000DA22DF50D8B47FEF83F081EF83F091EFFF
:1007000083F002D88FEF83F00500FA6E0001DF510D
:10071000FD6EE051FE6EE151FF6EFA50120093EF54
:1007200083F076EC87F01200000E5024D96EDA6A5E
:10073000010EDA22000EDF6EABA4A1EF83F0A3EF6F
:1007400083F0B9EF83F0000E5024D96EDA6A010EFF
:10075000DA220101DF8202D8B9EF83F00500FA6ED8
:100760000001D651FD6ED751FE6ED851FF6EFA5082
:100770001200ABA2BEEF83F0C0EF83F0D6EF83F0A0
:10078000000E5024D96EDA6A010EDA220101DF84EC
:1007900002D8D6EF83F00500FA6E0001D351FD6E4A
:1007A000D451FE6ED551FF6EFA501200000E502447
:1007B000D96EDA6A010EDA22DF50D8B4E2EF83F0A4
:1007C000E4EF83F0F4EF83F002D8F2EF83F005005A
:1007D000FA6E0001D051FD6ED151FE6ED251FF6E06
:1007E000FA501200F6EF83F08BEC87F012005D0EEA
:1007F000386EFF0E396EA0EC87F0490E386EFF0E92
:10080000396EA0EC87F0BA0E386EFE0E396EA0EC91
:1008100087F0A40E386EFF0E396EA0EC87F04DEF16
:1008200084F0B3EC87F00009D8B419EF84F01BEF23
:1008300084F04DEF84F067EC86F0436E34EF84F083
:10084000700E386EFF0E396EA0EC87F04DEF84F01D
:10085000350E386EFF0E396EA0EC87F04DEF84F048
:10086000A3EC84F04DEF84F04350416E426A425055
:10087000000AD8B43EEF84F04DEF84F04150310AC5
:10088000D8B420EF84F0030AD8B428EF84F0010A2A
:10089000D8B430EF84F04DEF84F0B3EC87F000096A
:1008A000D8B455EF84F057EF84F011EF84F01200C4
:1008B00009500A10D8B45FEF84F061EF84F06AEF5A
:1008C00084F009500A10D8A468EF84F06AEF84F02D
:1008D0006FEF84F0075024EC88F0A2EF84F020EE54
:1008E00004F00950D9260A50DA22DE50DE10D8B4BE
:1008F0007CEF84F07EEF84F099EF84F020EE04F03A
:100900000950D9260A50DA2210EE02F00950E126E9
:100910000A50E222DE50E65CE650800A0F6EDE509E
:10092000800A0F58D8B097EF84F099EF84F0A2EFC7
:1009300084F020EE02F00950D9260A50DA22DE2A8D
:10094000000EDD2212007F0E386EFE0E396EA0EC16
:1009500087F0520E386EFE0E396EA0EC87F0070E4F
:10096000386EFF0E396EA0EC87F0A40E386EFF0EC5
:10097000396EA0EC87F0B3EC87F00009D8B4C3EF70
:1009800084F0C5EF84F0BBEF84F067EC86F0406E36
:10099000D2EF84F0820E386EFF0E396EA0EC87F035
:1009A000EBEF84F040503E6E3F6A3F50000AD8B4EF
:1009B000DCEF84F0CAEF84F03E50310AD8B4EBEF9C
:1009C00084F0030AD8B4EBEF84F0010AD8B4EBEF5B
:1009D00084F0CAEF84F01200A39A620E056E060E30
:1009E000066E010E076EE5EC87F0A398F40E056E17
:1009F0000D0E066E010E076EDEEC87F0480E0F013D
:100A0000206F900E226F260E216F820E1E6F060E33
:100A10001F6F780E056E100E066E010E076EF3EC5A
:100A200087F0520E056E100E066E010E076EECEC8E
:100A300087F0620E056E100E066E010E076EFAEC60
:100A400087F0000E536E000E586E000E576E080EA3
:100A50005A6E000E566E000E556E000E546EA38A2E
:100A600012009D9A280E056E070E066E010E076E87
:100A700008EC88F09D98760E056E0E0E066E010E3F
:100A8000076E01EC88F0480E656E900EAB6E240E7A
:100A9000AC6E820EAF6E060ED46E7A0E056E100E20
:100AA000066E010E076E16EC88F0680E056E100ECD
:100AB000066E010E076E0FEC88F06E0E056E100EBE
:100AC000066E010E076E1DEC88F0000E4D6E000ED6
:100AD000526E000E516E400E596E000E506E000E9A
:100AE0004F6E000E4E6E9D8A12007BEF85F0054A18
:100AF000062A074A082A05C0D9FF06C0DAFFDF50D8
:100B0000096E07C0F6FF08C0F7FF000EF86E080078
:100B1000F5500918D8A48FEF85F091EF85F09DEF7F
:100B200085F005C0D9FF06C0DAFFDF50D8A49BEFDF
:100B300085F09DEF85F077EF85F005C0D9FF06C001
:100B4000DAFFDF50096E07C0F6FF08C0F7FF000E9E
:100B5000F86E0800F550095C056E066AD8A0060616
:100B6000120032C036F033C037F0000E0001A96F1A
:100B7000000EA86FCFEF85F030C026F031C027F00F
:100B8000360E286E000E296E34C02AF035C02BF0C8
:100B900010EC82F026500001A8272750A92336C068
:100BA000F6FF37C0F7FF000EF86E0800F550000999
:100BB000D8A4DDEF85F0DFEF85F0BCEF85F0A8C0AD
:100BC00030F0A9C031F012005A0EF66E100EF76E1A
:100BD000010EF86E00EEEEF010EE07F00900F5CF12
:100BE000EEFFE550E150FAE102EE00F0400EEE6A51
:100BF000E806FDE101EE00F0E00EEE6AE806FDE138
:100C000000EE60F04C0EEE6AE806FDE100EE48F002
:100C1000110EEE6AE806FDE15B905B9200011BEFAE
:100C200087F0056E5950D8B418EF86F01AEF86F0A9
:100C300012EF86F09DB81FEF86F021EF86F025EFCA
:100C400086F005C0ADFF3AEF86F09D98400E522425
:100C5000D96EDA6A010EDA2205C0DFFF522A3F0E92
:100C6000526435EF86F037EF86F039EF86F0000EEC
:100C7000526E59069D881200056E5A50D8B443EF43
:100C800086F045EF86F03DEF86F0A3B84AEF86F098
:100C90004CEF86F050EF86F005C01CFF65EF86F044
:100CA000A398A00E5824D96EDA6A000EDA2205C085
:100CB000DFFF582A070E586460EF86F062EF86F077
:100CC00064EF86F0000E586E5A06A38812004E504C
:100CD000D8B46DEF86F06FEF86F067EF86F0000E08
:100CE0004F24D96EDA6A010EDA22DF504D6E000E03
:100CF0004F24D96EDA6A020EDA22DF50056E4F2ACF
:100D00003F0E4F6486EF86F088EF86F08AEF86F01C
:100D1000000E4F6E9D9A4E069D8A0550120054504B
:100D2000D8B495EF86F097EF86F08FEF86F0600EDF
:100D30005524D96EDA6A000EDA22DF50536E800E27
:100D40005524D96EDA6A010EDA22DF50056E552A73
:100D50003F0E5564AEEF86F0B0EF86F0B2EF86F04E
:100D6000000E556EA39A5406A38A0550120007C0C0
:100D700009F008C00AF005C00BF006C00CF009C06D
:100D8000F6FF0AC0F7FF094A0A2A000EF86E0BC0E8
:100D9000D9FF0CC0DAFF0B4A0C2A0800F5CFDFFFA1
:100DA000DF50D8A4D6EF86F0D8EF86F0BFEF86F0FC
:100DB0001200000E8D6E000E8C6E000E896E000EFD
:100DC0008E6E000E8A6E000E8F6E000E8B6E000E01
:100DD000906E9668FE0E976E92681D0E986E9368E0
:100DE0009968BF0E946E95680F0125692469F30E0A
:100DF000236F1200080E5A6000EF87F002EF87F0B1
:100E000019EF87F0A00E5724D96EDA6A000EDA22A5
:100E1000DF500F011C6F572A070E576412EF87F03F
:100E200014EF87F016EF87F0000E576E5A2A1AEF6C
:100E300087F0A3981200C9EC87F0F28EF28CEE0EC8
:100E4000386EFE0E396EA0EC87F0C40E386EFF0EC1
:100E5000396EA0EC87F0B3EC87F00009D8B433EF1B
:100E600087F035EF87F02BEF87F0CBEC82F01FEFA8
:100E700087F096EF00F0400E596041EF87F043EFA6
:100E800087F059EF87F0400E5124D96EDA6A010ECF
:100E9000DA22DF50AD6E512A3F0E516452EF87F0D7
:100EA00054EF87F056EF87F0000E516E592A5AEF33
:100EB00087F09D98120005C007F006C008F063EFA8
:100EC00087F0054A062A05C0D9FF06C0DAFFDF50C1
:100ED000D8A46DEF87F06FEF87F061EF87F00750D0
:100EE000055C056E08500658066E1200800E5624EA
:100EF000D96EDA6A010EDA221DCFDFFF562A3F0EC5
:100F0000566485EF87F087EF87F089EF87F0000E52
:100F1000566E542A1200000E5024D96EDA6A020E60
:100F2000DA22AECFDFFF502A3F0E50649AEF87F0EF
:100F30009CEF87F09EEF87F0000E506E4E2A120055
:100F40003A0E3C6E000E3D6E000E306E000E316E9D
:100F500038C032F039C033F03C0E346E000E356EBE
:100F6000B1EC85F012004E50D8A4B9EF87F0BCEF79
:100F700087F0010EBDEF87F0000E12005450D8A488
:100F8000C4EF87F0C7EF87F0010EC8EF87F0000EBF
:100F900012003AEC88F0D9EC86F0D4EC87F031EC12
:100FA00085F0ECEC84F01200600ED36E000E646EDF
:100FB000000E9B6E000E0F012A6F120005C0EBF0B1
:100FC00006C0ECF007C0EDF0120005C0E8F006C066
:100FD000E9F007C0EAF0120005C0E2F006C0E3F055
:100FE00007C0E4F0120005C0E5F006C0E6F007C057
:100FF000E7F0120005C0DFF006C0E0F007C0E1F046
:10100000120005C0DCF006C0DDF007C0DEF0120003
:1010100005C0D9F006C0DAF007C0DBF0120005C049
:10102000D3F006C0D4F007C0D5F0120005C0D6F04A
:1010300006C0D7F007C0D8F0120005C0D0F006C037
:10104000D1F007C0D2F01200066E065011EC86F007
:1010500012000F01229922891200286E756C6C29EA
:01106000008F
:1010620076EC87F01200AB98AB8812008BEC87F01D
:0A1072001200D09E120012001200BE
:020000040020DA
:08000000FFFFFFFFFFFFFFFF00
:020000040030CA
:0E00000015127F7CF98B91FFFFC0FFE0FF40DF
:00000001FF
